:04000000020069325F
:01000B0032C2
:0100130032BA
:01001B0032B2
:0100230032AA
:01002B0032A2
:01003300329A
:01003B003292
:030043000202C2F4
:01004B003282
:01005300327A
:01005B003272
:030063000200C5D3
:0300C200020066D3
:030066000201771D
:1000C500C0E0C082C083C007C006C005C0D075D0DF
:1000D50000E590C4540FFF530703900080E025E02E
:1000E50025E0FEEF4206EEFD24F15003020142ED4C
:1000F500240A83F582ED241383F583E47342202ECD
:10010500422E4242202042422E422E200101010170
:1001150001010101010101010101019000AFE0248C
:1001250001F0A3E03400F080149000AFE024FFFD5F
:10013500A3E034FFFE9000AFEDF0EEA3F090008059
:10014500EFF0D0D0D005D006D007D083D082D0E054
:10015500325392EF4393105392DF4393205392BF50
:100165004393402253C77F43C71043C720D2EED2E3
:10017500AF2212088453967F4397C053C6DFC2C788
:10018500D2C575C264C2C1120156120169900081BF
:10019500E4F09000957481F07400A3F0E4A3F0906E
:1001A500009804F07582001207B420962D90008106
:1001B500E0FFBF0107900081E4F0800690008174A4
:1001C50001F090009A7481F07400A3F0E4A3F0901C
:1001D500009D04F0758200120801120777A296E4CB
:1001E50033FF9000AFE0FDA3E0FE9000B1E0FBA37C
:1001F500E0FCEDB50306EEB504028056EDC39BFDAC
:10020500EE9CFE8D828E83C0071209E1AD82AE831E
:10021500D007C3ED9464EE6480948050359000B1AE
:10022500E0FDA3E0FE9000AFE0FBA3E0FCEBC39D87
:10023500FDEC9EFE8D828E83C0071209E1AD82AE74
:1002450083D007C374019D74808EF063F08095F0B0
:10025500400C9000AEE0FEEFB506030201E22096E9
:10026500067D047E0080047D007E009000AFE0FCEA
:10027500A3E0900082ECF0900081E0FEBE010790C3
:100285000082C3E49CF0900082E0FE900091E4F0CF
:10029500900092F0900093EEF08D82C00712072037
:1002A500D0079000AFE4F0A3F09000B1F0A3F09078
:0D02B50000AEEFF09000051208E80201E233
:060AC3000100000000002C
:1002C200C020C0E0C0F0C082C083C007C006C00525
:1002D200C004C003C002C001C000C0D075D000205D
:1002E200D9030206E8743F55D9FFFEBE0003020699
:1002F200E0BF2003020656BF21028008BF30028001
:10030200150206E675D30074FC55D24402F5D27884
:100312000E76010206E6900090E5DBF0E0FFBF08F2
:10032200028003020626900006E0FF900084F0900F
:100332000007E07005EF24805006900084747FF07F
:10034200900090E4F0900001E0FF900083F09000B4
:1003520000E0FE5460602DBF010302062CBF0203C1
:1003620002062CBF030302062CBF090302062CBFA0
:100372000A0302062CBF0B0302062C90009074FFA6
:10038200F002062CEFFE24F5500302061EEE240AAC
:1003920083F582EE240F83F583E473FC1B1E5B1E40
:1003A200E5B31EF10F2C0505060506040306040538
:1003B20006900003E0FFBF01028013BF020280210A
:1003C200BF0302802FBF220302044A02046E900080
:1003D2008E740EF0740AA3F09000907412F002046E
:1003E2007490008E7420F0740AA3F0900090743B15
:1003F200F0020474900002E0701290008E748FF08C
:10040200740AA3F09000907404F08066900002E0F9
:10041200FFBF011290008E7493F0740AA3F0900053
:10042200907412F0804C900002E0FFBF0212900024
:100432008E74A5F0740AA3F0900090741EF08032BE
:1004420090009074FFF0802A900004E070169000F3
:100452008E745BF0740AA3F09000907434F0780DFF
:100462007601800E90009074FFF0800690009074E8
:10047200FFF0900084E0FF900090E0FEC39F5005E3
:10048200900084EEF0900084E0FFBF080040067DFB
:10049200087E0080048F057E00900090EDF09000B1
:1004A2008EE0FEA3E0FF9000A5EEF0EFA3F07480D3
:1004B200A3F09000A8EDF0E4A3F090000075F00026
:1004C200C005120952D005900084E0C39DF090004F
:1004D2008EE0FEA3E0FF90008EED2EF0E43FA3F04D
:1004E20002062C900002E0FF900084F002062C909D
:1004F2000085E0900000F0900084E0FFBF01005012
:100502000302062C9000907401F002062C90000267
:10051200E0FF900085F002062C900000E0FF5307F8
:100522001F7E00BF022ABE0027900004E0FFBF0129
:1005320002800EBF811174BC55D24402F5D202066C
:100542002C53D27302062C90009074FFF002062CFA
:1005520090009074FFF002062C900000E0541F708F
:1005620037900003E0FE7F00900002E0FD7C004235
:1005720007EC4206BF0118BE0015900A27E493FF5C
:1005820030E50302062C90009074FFF002062C90D6
:10059200009074FFF002062C900000E0FF53071F4A
:1005A2007E00BF024DBE004A900003E0FE7F009035
:1005B2000002E0FD7C004207EC4206EF4E702B90F9
:1005C2000005E0FE7F00900004E0FD7C004207ECA5
:1005D2004206BF810DBE000A74BF55D24403F5D254
:1005E200804890009074FFF0804090009074FFF07B
:1005F200803890009074FFF08030900000E4F0901A
:100602000001F0900084E0FFBF02004008900090DB
:100612007402F08015900090EFF0800E90009074BC
:10062200FFF0800690009074FFF0900090E0FFBF12
:10063200FF0C90008374FFF075DCCF0206E6EF2416
:10064200F740088FDD75DCC00206E675DD0075DC5B
:10065200C00206E6900083E0FFBF05028066BF0687
:1006620075900084E0FFBF080040067D087E008090
:10067200048F057E0090008EE0FEA3E0FF9000A5AF
:10068200EEF0EFA3F07480A3F09000A8EDF0E4A3E5
:10069200F090000075F000C005120952D0059000DC
:1006A20084E0C39DF090008EE0FEA3E0FF90008EF8
:1006B200ED2EF0E43FA3F08DDDAEDC7F006306405B
:1006C2008EDC8020E5E35480FF900084E0FE4FF54D
:1006D200E375DC02800E75DD0075DC02800675DDD7
:1006E2000075DC00C2D930D81275DC0275D21075E3
:1006F200D41275E300C2DAC2D9C2D810DA0375D8AF
:10070200FFD0D0D000D001D002D003D004D005D089
:1007120006D007D083D082D0F0D0E0D02032E5825C
:10072200900094F0780E7600E0FF5307079000B532
:10073200EFF0900091E09000B6F0900092E090000F
:10074200B7F0900093E09000B8F09000A574B5F077
:100752007400A3F0E4A3F09000A87404F0E4A3F002
:1007620090001075F00012095275D30453D2FC7830
:100772000EE660FB22C2EA75E20075EC0075ED0040
:1007820075EE1075EF0075EA6775DC0275D2427579
:10079200D30075E30075D18075E22943D10175D884
:1007A200FF75E107D2EA780D7600D2AF780DE660E8
:0207B200FB2228
:100A0E001201100100000008FECA230000010102BD
:100A1E0000010902220001010080320904000001D8
:100A2E000301020009211101000122340007058192
:100A3E000304000A00000000000000000000000097
:100A4E000000000000000000000000000005010989
:100A5E0002A1010901A100050919012903150025AB
:100A6E000195037501810295017505810305010943
:100A7E0030093109381581257F750895038106C027
:100A8E00C00403090412034300720065007300637F
:100A9E000065006E0074001E034E0061006E006F54
:100AAE0000200055005300420020004D006F0075DD
:050ABE0000730065005B
:050AC900000000000028
:1007B400E582900099F07585C0E025E0F0E0FF90B7
:1007C4000095E0FCA3E0FDA3E0FE900098E0FB7A36
:1007D40000C3EA9B5026C0038A01E9298F0028F54B
:1007E4008475868EEA2CF8E43DF98E038882898329
:1007F4008BF0E58E1209C60AD00380D522E58290DB
:10080400009EF075A15575A1AA43B10475A10075A8
:1008140085C090009EE025E0F0E0FF90009AE0FCA7
:10082400A3E0FDA3E0FE90009DE0FB7A00C3EA9BF9
:100834005041C0038A01E9298F0028F584EA2CF885
:10084400E43DF98E03888289838BF01209EEF58EDC
:10085400E586D00330E60375869AA886790063009E
:1008640040C3E498748089F063F08095F0500122CD
:100874000A80BA75A15575A1AA53B1FB75A10022CE
:1008840075A15575A1AA74F855B94406F5B975A1B1
:100894000022AF83E58290009FF0EFA3F090009FC9
:1008A400E0FEA3E0C313CE13CEFF90009FEEF0EF63
:1008B400A3F090009FE0FEA3E0FFEE4F601D05A1B2
:1008C40005A105A105A105A105A105A11EBEFF0164
:1008D4001F90009FEEF0EFA3F080DF90009FEEF0FA
:1008E400EFA3F022AF83E5829000A1F0EFA3F09094
:1008F40000A1E0FEA3E0FFEE4F601D9003E8C007F7
:10090400C006120896D006D0071EBEFF011F900035
:10091400A1EEF0EFA3F080DF9000A1EEF0EFA3F0E2
:1009240022AF83E5829000A3F0EFA3F09000A3E050
:10093400FEA3E0FF8EC110C10280FB8E828F832252
:0E09440010C00280FBAEC17F008E828F832226
:06009800E478FFF6D8FD3C
:10095200AFF0AE83E5829000AAF0EEA3F0EFA3F031
:100962009000AAE0F508A3E0F509A3E0F50AAA08B9
:10097200AB09AC0A9000A5E0F8A3E0F9A3E0FF9070
:1009820000A8E0F50BA3E0F50CAD0BAE0C150B7453
:10099200FFB50B02150CED4E6020888289838FF023
:1009A2001209EEFEA3A882A9838A828B838CF0EEC1
:1009B2001209C6A3AA82AB8380CF850882850983E8
:0409C200850AF02290
:10007600790BE94400601B7A01900AC378AE75A03B
:1000860000E493F2A308B8000205A0D9F4DAF275E9
:02009600A0FFC9
:1009C60020F71130F6138883A88220F509F6A8834C
:1009D6007583002280FEF280F5F022E58330E7077A
:0809E6006382FF6383FFA3227B
:10009E007800E84400600A798075A000E4F309D87E
:1000AE00FC782EE84400600C7901900080E4F0A307
:0400BE00D8FCD9FA97
:0D006900758120120A0AE58260030200661C
:1009EE0020F71430F6148883A88220F507E6A88332
:1009FE0075830022E280F7E49322E02275820022C2
:00000001FF
